:1009EB00140A004000F90024003000190012000224
:0609FB0000F800000010EE
:10098900E4FDFCC3ED9FEE6480F8EC64809850238D
:10099900E4FBFA900000A3E582B4FBFAE583B40412
:1009A900F50BBB00010AEB64524A70E70DBD00016B
:0309B9000C80D0DF
:0109BC002218
:100948008E1E8F1FC28220B33720B234E51F451E8A
:100958007010C280D2827F03FE120989C28230B32E
:10096800122220B31BC2807F017E00120989D28027
:1009780012098920B20AE51F151F70CD151E80C9FE
:01098800224C
:1009BD0030B313EF25E0240AF808E6F5A0D2B030E5
:0709CD00B10420B3FA22225D
:10080000E4F508F50920B3030208BBE590B4FF0442
:1008100020B3F822E590B4FE0F7508007509017F3A
:10082000017E001209BD80ECE590B4FD0F75080053
:100830007509027F027E001209BD80ECE590B4FBD1
:100840000F7508007509037F037E001209BD80EC57
:10085000E590B4F70F7508007509047F047E001257
:1008600009BD80ECE590B4EF0F7508007509057FB0
:10087000057E001209BD80ECE590B4DF0F7508001D
:100880007509067F067E001209BD80ECE590B4BFB5
:100890000F7508007509077F077E001209BD80ECFF
:1008A000E590B47F0F7508007509087F087E001277
:0C08B00009BD80ECD2B1C2B002080B22DE
:1009D4007F067E00C28230B30AC2B0D2B17590FFE6
:0609E400020800120948A0
:0109EA0022EA
:030000000208BC37
:0C08BC00787FE4F6D8FD75811F02090367
:1008C8000209D4E493A3F8E493A34003F68001F269
:1008D80008DFF48029E493A3F85407240CC8C33331
:1008E800C4540F4420C8834004F456800146F6DF00
:1008F800E4800B01020408102040809009EBE47E9C
:10090800019360BCA3FF543F30E509541FFEE493F4
:10091800A360010ECF54C025E060A840B8E493A3BB
:10092800FAE493A3F8E493A3C8C582C8CAC583CAE6
:10093800F0A3C8C582C8CAC583CADFE9DEE780BE9E
:010A010000F4
:00000001FF
